:020000040000FA
:100000000000000002340034183400342834003476
:10001000073400342F3402341034013407340034F0
:100020008A110A12120016008A110A1216281600E6
:0E0030000134293403342A34003401340034FE
:100040000000003E413E413EFF3E253E003E213E37
:10005000003E2F3E023E013E003E2D3E2F3E2E3EF4
:10006000FF3E013E800780070007FF07FF077F076D
:10007000A107A1072107A907A9072907B107B10708
:100080003107FF078107A207A807B3072207003936
:1000900041394139FF394B390039213900392F397C
:1000A000023901390039533955395439FF39013989
:1000B000800580050005FF05FF057F05A105A10559
:1000C0002105A905A9052905B105B1053105FF05DA
:1000D0008105A205A805B3052205001080137F1035
:1000E000FF132110A1132910A9133110B11300140B
:1000F00080177F14FF172114A1172914A917311491
:10010000B1170018801B7F18FF1B2118A11B29188D
:10011000A91B3118B11B001C801F7F1CFF1F211C55
:10012000A11F291CA91F311CB11F0020FF2721205E
:100130002F2201209A209C209B208001FF01A101F9
:10014000A901B101A101FF018101A201A801B3012F
:1001500003016400800980090009FF09FF097F0984
:10016000A109A1092109A909A9092909B109B10907
:100170003109FF098109A209A809B30922098003ED
:1001800080030003FF03FF037F03A103A1032103F7
:10019000A903A9032903B103B1033103FF038103B9
:1001A000A203A803B3032203800B800B000BFF0BF9
:1001B000FF0B7F0BA10BA10B210BA90BA90B290B8B
:1001C000B10BB10B310BFF0B810BA20BA80BB30BC7
:1001D000220B0028FF2F21282F2A0128EE28F028A3
:1001E000EF28800A800A000AFF0AFF0A7F0AA10A94
:1001F000A10A210AA90AA90A290AB10AB10A310ADF
:10020000FF0A810AA20AA80AB30A220A800F800FF5
:10021000000FFF0FFF0F7F0FA10FA10F210FA90FDD
:10022000A90F290FB10FB10F310FFF0F810FA20FCF
:10023000A80FB30F220F003841384138FF381F385C
:100240000138213800382F38023801380038273873
:1002500029382838FF380138800480040004FF045E
:10026000FF047F04A104A1042104A904A904290412
:10027000B104B1043104FF048104A204A804B3044E
:100280002204800880080008FF08FF087F08A108F2
:10029000A1082108A908A9082908B108B10831084E
:1002A000FF088108A208A808B308220800304130DE
:1002B0004130FF305A300130213000302F300230D1
:1002C00001300030623064306330FF300130800034
:1002D000FF00A100A900B100A100FF008100A20061
:1002E000A800B3000000620009000034413441342A
:1002F000FF3479340134213400342F340234013492
:100300000034813483348234FF3401340800800D9A
:10031000800D000DFF0DFF0D7F0DA10DA10D210D15
:10032000A90DA90D290DB10DB10D310DFF0D810DD7
:10033000A20DA80DB30D220D800C800C000CFF0C3B
:10034000FF0C7F0CA10CA10C210CA90CA90C290CF1
:10035000B10CB10C310CFF0C810CA20CA80CB30C2D
:10036000220C6300003C413C413CFF3CB63C013C5C
:10037000213C003C2F3C023C013C003CBE3CC03CCC
:10038000BF3CFF3C013C800280020002FF02FF02F2
:100390007F02A102A1022102A902A9022902B1023F
:1003A000B1023102FF028102A202A802B3022202BC
:1003B000800E800E000EFF0EFF0E7F0EA10EA10E0E
:1003C000210EA90EA90E290EB10EB10E310EFF0E8F
:1003D000810EA20EA80EB30E220E003A413A413A07
:1003E000FF3AF13A013A213A003A2F3A023A013AF9
:1003F000003AF93AFB3AFA3AFF3A013A80068006A7
:100400000006FF06FF067F06A106A1062106A90633
:10041000A9062906B106B1063106FF068106A20625
:10042000A806B30622068312031383120313831252
:100430000313831603138312031783138313831386
:10044000831383178A110A128A110A128A110A1257
:100450008A110A128A110A1221002F0201000134A6
:100460001134033412340134213400348A110A1255
:04047000382A3802EC
:101000008A110A128A150A128A150A128312031308
:10101000831603138312031783138313831721018A
:021020001101BC
:00000001FF
